:1000000002308A00162A00008C266537FA346C10FC
:10001000E434F3346E3261008C26E5396133651DBA
:10002000A5186410E33600002A308400831300080A
:10003000031928280130F800F701F70B1D28F80BE9
:100040001C284A30F700F70B23282628800B1A2893
:100050000800310EF039F7000F30060577048600EE
:10006000000006143328061008000608F700060EE4
:100070000F39F80008008316061086100611831247
:1000800086100F3083160605F03886008312061599
:1000900000000614000035207808B10006100000AA
:1000A0000614000035207808B00006100F308316C3
:1000B000060586008312310EF700F030F705770849
:1000C0003004F8007808B000B01B41282E1C8610C0
:1000D0002E18861400000611000006102F0EB00026
:1000E0000F30B0053008B10029202F080F39B000BB
:1000F000B100292008002830A4000C30A5000130F0
:10010000A6000630A7000610861006110F308316D1
:10011000060586000610861006110F308312AA000D
:1001200014200130A3002308033C031C9F28033044
:10013000B10029200530AA001420A30A9328023018
:10014000B10029200530AA001420A3012308033C94
:10015000031CB62824302307840083130008A8005A
:10016000AE012808AF003B20A30AA6288A110A1274
:100170003B2A2B0BBC28BF284030AC00C028AC0168
:1001800001302A02AC072C088038AD00AE012D08E2
:10019000AF003B2008002908073A0319D9280B3A79
:1001A0000319DE28063A0319E628023A0319EC2857
:1001B000F1280130AA00AB00B920F628AE010130C9
:1001C000AF003B200230AA001420F6280130AA001C
:1001D0000230AB00B920F628AE011030AF003B2052
:1001E000F6280130AE002908AF003B2008000B08BC
:1001F000A3008B13831603178C170C140000000048
:1002000083120313A31B8B1703170C087F390319E1
:100210004B290313A30003170D080313A4000317AE
:100220000F080313A5002308A900CB2024080317F7
:100230008D000313250803178F0003130B08A60076
:100240008B13831603178C170C1400000000831205
:100250000313A61B8B1703170C0D0E0D7F39031903
:100260004B290313A30003170D080313A40003175E
:100270000F080313A5002308A900CB2024080317A7
:100280008D000313250803178F008D0A03198F0AA9
:100290000313F728031703138A110A125C2A0B08A9
:1002A000A4008B13831603178C170C140000000096
:1002B00083120313A41B8B170318862903170C083A
:1002C0007F390313A40003170D080313A5000317B8
:1002D0000F080313A6002408A900CB202508031744
:1002E0008D000313260803178F0003130B08A700C4
:1002F0008B13831603178C170C1400000000831255
:100300000313A71B8B17A30B8629A52903170C0D15
:100310000E0D7F390313A40003170D080313A50066
:1003200003170F080313A6002408A900CB202508F3
:1003300003178D000313260803178F008D0A031976
:100340008F0A03100313A30B4F298A110A126E2A76
:100350002A08F80129020318B0292908F700BC2946
:10036000F7010830AB00A90DF70D2A087702031832
:10037000F700F80DAB0BB32908002030241E3030F5
:10038000A5002308F700A31FCD29F709F70A77086E
:10039000A3002D30A500A41724142308A90064305D
:1003A000AA00A8217708A30030307807A600230808
:1003B000A9000A30AA00A82130307707A800303001
:1003C0007807A7002508F700303026020319EC292A
:1003D000A414A41B2415002A2508A6002030A5007B
:1003E000303027020319F8292414A41BA414002A6E
:1003F000031D2414031D002A2608A7002030A60090
:100400002419072AA4180A2A24180D2A102A2508B4
:10041000A900CB202608A900CB202708A900CB20C3
:100420002808A900CB208A110A12732A03081F3951
:100430008300193083169900A630980090308312FB
:100440009800A201A10183161F149F141F159F116C
:1004500083130912831290010030F80092000030DB
:1004600083169200F030831297059D0502308316A3
:10047000850083127B2805140630F700F70B3E2A0F
:1004800000000510851C422A851C4E2A0130A00759
:100490001030F700F70B4A2A0000442AC830AA009F
:1004A00014202008463C0318642A043003178D00EA
:1004B00000308F000313F7280230A300FA30AA009F
:1004C0001420A30B5E2A802A0C3003178D00003005
:1004D0008F00031008300313A3004F292008A30046
:1004E0001830A400BD292030A900CB206330A9001A
:1004F000CB206D30A900CB20C830AA001420A00169
:040500003B2A63002F
:02400E003A3B3B
:00000001FF
;PIC16F877
;CRC=3C50  CREATED="21-Haz-22 21:28"
